:020000040000FA
:1000000000020010E1000000E9000000EB00000029
:10001000ED000000EF000000F10000000000000013
:10002000000000000000000000000000F3000000DD
:10003000F500000000000000F7000000F9000000DB
:10004000FB000000FB000000FB000000FB000000C4
:10005000FB000000FB000000FB000000FB000000B4
:10006000FB000000FB000000FB000000FB000000A4
:10007000FB000000FB000000FB000000FB00000094
:10008000FB000000FB000000FB000000FB00000084
:10009000FB000000FB000000FB000000FB00000074
:1000A000FB000000FB000000FB000000FB00000064
:1000B000FB000000FB000000FB000000FB00000054
:1000C000FB000000FB000000FB000000DFF80CD08C
:1000D00001F0ACFB00480047D317000000020010FD
:1000E0000648804706480047FEE7FEE7FEE7FEE7D2
:1000F000FEE7FEE7FEE7FEE7FEE7FEE73D04000061
:10010000CD00000010B50A46202801D2034601E0C8
:10011000A0F120031946202814D2514B1B684FF040
:10012000030404FA01F423EA04034E4CC4F8A83192
:100130004B4B1B6802FA01F443EA0403494CC4F830
:10014000A83113E0484B1B684FF0030404FA01F494
:1001500023EA0403434CC4F8AC31434B1B6802FA56
:1001600001F443EA04033F4CC4F8AC3110BD01462E
:10017000202903D20A463A4B186803E0A1F1200275
:10018000394B186820FA02F303F00303184670474E
:1001900070B506463548006804463046FFF7E7FF6D
:1001A000054635B1012D08D0022D0AD0032D10D1FE
:1001B0000BE04FF0040005460BE04FF00100054650
:1001C00007E04FF00200054603E04FF00800054647
:1001D00000BF00BFB4FBF5F00446204670BD012906
:1001E0000AD1234A1268234B00EA030342EA0302BE
:1001F0001C4BC3F8C4200AE049B91D4A12681D4BC4
:1002000023EA000302EA0302164BC3F8C420704736
:100210004FF000001849086030BF70474FF00400ED
:10022000164908604FF008000E49C1F8C00030BF01
:1002300070474FF00400114908604FF00900094968
:10024000C1F8C00030BF70474FF004000B49086090
:100250004FF003000349C1F8C00030BF70470000F1
:10026000A8C10F4000C00F40ACC10F4000C0072024
:10027000C4C00F40DEF7EFEFC0C00F4010ED00E04C
:100280002DE9F05F0546002092469B4688460646CB
:10029000814640241CE0284641464746224601F05C
:1002A000B4FA52465B46801A994111D3104619465A
:1002B000224601F09BFA2D1A67EB0107B8464F461C
:1002C00022460120002101F091FA38184E41814662
:1002D000201EA4F10104DEDC484631462A4643468E
:1002E000BDE8F09F02E008C8121F08C1002AFAD139
:1002F000704770470000000000000000FFFFFFFF94
:1003000098480068C0F30160032865D1954884309F
:10031000006810F0030006D0012823D002283FD047
:10032000032858D100E000BF8E480068C0F30E00DB
:1003300000F101004FEA40008B4900FB01F08B49BE
:10034000D1F88810C1F3074101F10101B0FBF1F1CF
:1003500087480068C0B200F10100B1FBF0F08549A8
:10036000086038E07F480068C0F30E0000F101002B
:100370004FEA4000804900FB01F07C49D1F8881029
:10038000C1F3074101F10101B0FBF1F178480068C8
:10039000C0B200F10100B1FBF0F0764908601AE04C
:1003A00070480068C0F30E0000F101004FEA004100
:1003B0006E48D0F88800C0F3074000F10100B1FB9F
:1003C000F0F16B480068C0B200F10100B1FBF0F041
:1003D0006849086000BF30E065480830006810F0E8
:1003E000030006D0012810D0022819D0032823D1F9
:1003F00000E000BF5E480068C0B200F101005A4949
:10040000B1FBF0F05B49086016E059480068C0B2E3
:1004100000F101005849B1FBF0F0564908600BE0CB
:1004200053480068C0B200F101004FF40041B1FB35
:10043000F0F05049086000BF00BF70474FF0200047
:100440004E4908604948D0F8A00110F0200F05D0AF
:1004500000BF4A48006810F0400FFAD04FF0030088
:10046000434908604FF000004049C1F8A8014449E1
:1004700008604FF001004349086043484349086061
:100480004FF0AA00424908604FF0550008604FF055
:100490000100404908604FF0AA003D4908604FF054
:1004A00055003249C1F88C0000BF2E48006810F09A
:1004B000806FFAD04FF00300364908604FF0AA0071
:1004C0002A49C1F88C004FF055003149086000BF3F
:1004D0002448006810F0407FFAD04FF023002E49E6
:1004E00008604FF0AA002149C1F8AC004FF0550058
:1004F0002A4908604FF00100294908604FF0AA001E
:10050000264908604FF055001849C1F8AC0000BFFB
:100510002148001D006810F4806FF9D04FF00300EF
:100520001F4908604FF0AA001049C1F8AC004FF015
:1005300055001A49086000BF1748001D006810F4F4
:10054000407FF9D01748184908604FF0000007496C
:10055000C1F8C80143F23A0008604FF000001349A7
:100560000860704788C00F4000093D0000C00F4080
:1005700004C10F4000C00720001BB700A0C10F40FE
:10058000ACC10F400CC10F406300050084C00F4098
:100590008CC00F4080C00F40A4C00F40ACC00F40C3
:1005A000A0C00F40DE872804C4C00F4008ED00E063
:1005B000F0B504460B46154619464FEA4406304648
:1005C0004D4E3246102905D3A1F11006314600F1F7
:1005D0000106304652F820604FEA410C4FF0030705
:1005E00007FA0CF726EA070642F8206052F8206066
:1005F0004FEA410705FA07F746EA070642F8206086
:10060000F0BDF0B504460B46154619464FEA4406C0
:1006100030463A4E3246102905D3A1F11006314634
:1006200000F10106304652F820604FEA410C4FF0CD
:10063000030707FA0CF726EA070642F8206052F88B
:1006400020604FEA410705FA07F746EA070642F835
:100650002060F0BD30B50B46294C2146012A09D156
:1006600051F82040154605FA03F544EA050441F81F
:10067000204009E051F820404FF0010505FA03F54C
:1006800024EA050441F8204030BD012806D11A496A
:10069000896A41F00801184A916206E028B91649B2
:1006A000896A21F00801144A91627047012801D13A
:1006B0004FF0050211B94FF00A031A460E4BDA67E4
:1006C000704710B50446A3781A4663781946237814
:1006D0001846FFF76DFFE3781A46637819462378CA
:1006E0001846FFF78EFF23791A4663781946237858
:1006F0001846FFF7AFFF10BD00C0024040C00240E7
:1007000068C002402DE9F34F93B080464FF00000DF
:100710000990FF48804504D10620FFF739FD814646
:1007200016E0FC48804504D10820FFF731FD8146E2
:100730000EE0F948804504D13020FFF729FD8146BD
:1007400006E0F648804503D13220FFF721FD8146BF
:100750004FF0FF3004904FF00000079006900446E1
:1007600025464FF0010A5CE04FF0000008904EE093
:100770000898504414994843029000201C22CDE967
:100780000C0948460C9901F031F800221346A0FBF1
:100790000A2C01FB0AC100FB0310CDE90020002355
:1007A0009DE80700FFF76CFD06460F4605964FF0E3
:1007B000200230463946CDE90A7601F026F8834614
:1007C0000598B0F1004F06D90598C0F100000590DA
:1007D0000BF101008346BBF1000F02D0BBF5803F57
:1007E00000D910E0DDE9041088420BD2059804908E
:1007F0004FF000055C4608980790CDF818A00498C3
:1008000000B907E000BF089800F1010008900898BF
:100810005045ADD300BF049800B905E00AF10100CE
:100820008246BAF10F0F9FD900BF002184EA010070
:100830006940084302D115B0BDE8F08F4FEA1910A6
:10084000069900FB01FC0846079908440021A0FB1B
:10085000042301FB043100FB05100346CDE9002011
:1008600060460021FFF70CFD039014990398814224
:1008700005D903991498A0EB0100049004E01499A1
:100880000398A0EB010004904FF06401049800FB72
:1008900001F01499B0FBF1F00490049803284ED2B3
:1008A0009C48804524D198F80C0040F0800088F8DE
:1008B0000C004FF0080220462946CDE90E5400F006
:1008C000A4FF88F8040088F8004098F80C0000F0B5
:1008D0007F0088F80C004FF0F001069801EA001044
:1008E000079901F00F0140EA0100C8F8280023E051
:1008F00098F80C0040F0800088F80C004FF00802D7
:1009000020462946CDE9105400F07FFF88F8040006
:1009100088F8004098F80C0000F07F0088F80C0080
:100920004FF0F001069801EA0010079901F00F015D
:1009300040EA010088F828004FF00100099009986A
:1009400079E770B504460D467148844208D0714875
:10095000844205D07048844202D07048844200D15D
:1009600003E0CA216EA000F036FF687940B16879D3
:10097000012805D06879022802D06879032800D1BF
:1009800003E0CB2166A000F026FFA87910B1A8797A
:10099000012800D103E0CC2161A000F01CFF2879E0
:1009A00058B12879012808D02879022805D028795B
:1009B000032802D02879042800D103E0CD2158A0D3
:1009C00000F009FF5248844203D101210820FFF7BB
:1009D00006FC5048844203D101211020FFF7FFFBA1
:1009E0004D48844203D101210806FFF7F8FB4B482C
:1009F000844203D101214806FFF7F1FB45488442B8
:100A000027D14FF0070020724FF00000207200E065
:100A10002678207D10F0010FFAD14FF0800084F885
:100A2000300000BF207D10F0200FFBD04FF0000001
:100A300084F83000606020732062207484F84C00D9
:100A400084F8540084F85000207E0646207D064637
:100A50001DE04FF0070020724FF00000207200E010
:100A60002678207D10F0010FFAD14FF0800084F835
:100A7000300000BF207D10F0200FFBD04FF00000B1
:100A800084F83000606020732062207D0646234891
:100A9000844203D14FF0000084F824002868014606
:100AA0002046FFF72FFE1B48844204D1207B00F034
:100AB000C000064603E0207B00F0C00006466879CF
:100AC00030B1012806D0022808D003280AD10AE054
:100AD00000BF0CE046F00100064608E046F00200C8
:100AE000064604E000BF46F00300064600BF00BF14
:100AF000287960B146F0080006462879012825D0FB
:100B0000022825D0032827D004282DD128E02DE065
:100B100000C00040000001400080094000C00940C2
:100B20002E2E5C2E2E5C2E2E5C2E2E5C4472697650
:100B30006572735C736F757263655C6C706331377B
:100B400078785F756172742E6300000000BF0CE05E
:100B500046F01000064608E046F02000064604E095
:100B600046F03000064600E000BF00BFA87930B173
:100B7000012803D146F00400064601E000BF00BF93
:100B800000BFF848844201D1267300E0267370BD8F
:100B900070B504460D46F448844208D0F1488442BA
:100BA00005D0F248844202D0F148844200D105E0E9
:100BB00040F2EB31AFF2980000F00DFE0DB1012DC7
:100BC00000D105E04FF47B71AFF2AC0000F003FE02
:100BD000012D10D1E348844206D194F8300040F052
:100BE000800084F8300016E094F8300040F0800077
:100BF00084F830000FE0DB48844206D194F83000DE
:100C00004FF0000084F8300005E094F830004FF019
:100C1000000084F8300070BD10B50446D24884420C
:100C200008D0D048844205D0D048844202D0D04871
:100C3000844200D105E04FF4CB71AFF21C1000F0FC
:100C4000CAFD00212046FFF7A3FFC748844203D115
:100C500000210820FFF7C3FAC248844203D10021D3
:100C60001020FFF7BCFAC148844204D100214FF0A4
:100C70008070FFF7B4FABE48844204D100214FF0DF
:100C80000070FFF7ACFA10BD4FF4165101604FF041
:100C9000030141714FF0000101718171704770B51E
:100CA00004460D46B048844208D0AE48844205D080
:100CB000AE48844202D0AE48844200D105E04FF4F1
:100CC000ED71AFF2A41000F086FDA648844201D178
:100CD000257000E0257070BD10B50446A24884421E
:100CE00008D0A048844205D0A048844202D0A04841
:100CF000844200D105E040F2F311AFF2DC1000F0C5
:100D00006AFD9848844201D1207810BD2078FCE724
:100D10002DE9FF5F80468A46934657465C46039816
:100D2000012831D14FF000052BE04FF0FF30814614
:100D300006E0B9F1000F00D107E0A9F101008146FA
:100D400098F8140010F0200FF3D000BFB9F1000F95
:100D500000D118E04FF0100006460FE03A78781CFA
:100D6000074611464046FFF79AFFA6F101000646E6
:100D7000A4F10100044605F1010005460EB1002C66
:100D8000ECD1002CD1D122E04FF000051CE098F806
:100D9000140010F0200F00D118E04FF010000646AC
:100DA0000FE03A78781C074611464046FFF777FF78
:100DB000A4F101000446A6F10100064605F1010078
:100DC00005460EB1002CECD1002CE0D100BF284626
:100DD00004B0BDE8F09F2DE9F05F074689469246D2
:100DE0009B464E465546BBF1010F26D14FF00004FD
:100DF00020E04FF0FF30804606E0B8F1000F00D150
:100E000006E0A8F101008046387D10F0010FF4D013
:100E100000BFB8F1000F00D10EE03846FFF75CFFCD
:100E2000307006F101000646A5F10100054604F107
:100E300001000446002DDCD117E04FF0000411E062
:100E4000387D10F0010F00D10EE03846FFF744FF67
:100E5000307006F10100064604F101000446A5F1D8
:100E600001000546002DEBD100BF2046BDE8F09FF4
:100E700010B504463C48844208D03A48844205D024
:100E80003A48844202D03A48844200D105E040F218
:100E90008521AFF2743000F09EFC3248844204D1C8
:100EA000207B40F04000207303E0207B40F04000B6
:100EB000207310BD2DE9F04104460D4617462A481F
:100EC000844208D02748844205D02848844202D072
:100ED0002748844200D105E04FF42B71AFF2C030B7
:100EE00000F079FC0FB1012F00D105E040F2AD21F7
:100EF000AFF2D43000F06FFC072D1AD2DFE805F016
:100F000004070A0D101316004FF0010611E04FF010
:100F100002060EE04FF004060BE04FF0080608E072
:100F20004FF0800605E04FF4807602E04FF4007643
:100F300000BF00BF0B4884421CD15DB1012D09D018
:100F4000022D07D0052D05D0062D03D0032D01D08D
:100F5000042D00D11EE040F2C921AFF23C4000F068
:100F60003AFC17E00000014000C00040008009404A
:100F700000C009403DB1012D05D0022D03D0052D43
:100F800001D0062D00D105E040F2CD21AFF2704036
:100F900000F021FC012F0CD1FF48844204D160688D
:100FA00040EA0600606018E0606840EA06006060A1
:100FB00013E0F948844208D1606840F28F3121EA99
:100FC000060100EA0100606007E0606840F2073156
:100FD00021EA060100EA01006060BDE8F08110B579
:100FE0000446EE48844208D0EB48844205D0EC48E1
:100FF000844202D0EB48844200D105E040F2FB215C
:10100000AFF2E44000F0E7FBE348844201D1007D09
:1010100010BD207DFCE710B50446E048844208D0AE
:10102000DD48844205D0DE48844202D0DD48844257
:1010300000D105E040F21231AFF21C5000F0CBFBC2
:10104000A06840F2CF31084010BD0146087D10F085
:10105000400F01D0002070470120FCE770B5064624
:101060000C464FF000000546CC48864208D0CA48DE
:10107000864205D0CA48864202D0CA48864200D17C
:1010800005E04FF44E71AFF2685000F0A4FBE07839
:1010900040B1E078012805D0E078022802D0E0785D
:1010A000032800D105E040F23931AFF28C5000F056
:1010B00092FBA07810B1A078012800D105E040F2A1
:1010C0003A31AFF2A45000F086FB207810B12078BE
:1010D000012800D105E040F23B31AFF2BC5000F0F6
:1010E0007AFB607810B16078012800D105E04FF4F8
:1010F0004F71AFF2D45000F06EFB45F00100054691
:10110000E07830B1012806D0022808D003280AD19F
:101110000AE000BF0CE045F04000054608E045F05D
:101120008000054604E000BF45F0C000054600BF52
:1011300000BF6078012802D145F004000546207800
:10114000012802D145F002000546A078012802D10D
:1011500045F0080005469048864203D105F0CF00CF
:10116000307202E005F0CF00307270BD4FF0000128
:101170008170C1704FF001010170417070472DE91D
:10118000F04104460F4615468448844208D0824800
:10119000844205D08248844202D08248844200D1F1
:1011A00005E040F29331AFF2886000F014FB0DB11E
:1011B000012D00D105E04FF46571AFF29C6000F0A5
:1011C0000AFB4FF00006012D0BD13878012802D11F
:1011D00046F0020006467878012802D146F0040065
:1011E00006466D48844218D1012D12D1207B40F073
:1011F000800020734FF0000020702071207B20F0D1
:10120000800020734FF01000A06246F001002062C1
:101210001CE04FF00000206218E0012D13D1207B6C
:1012200040F0800020734FF0000020702071207B80
:1012300020F0800020734FF0100084F8280046F062
:101240000100206202E04FF000002062BDE8F08162
:1012500070B504460D465148844208D04E48844239
:1012600005D04F48844202D04E48844200D105E068
:101270004FF47571AFF2587000F0ADFA46488442F1
:1012800004D1206A40EA0500206203E0206A40EAB7
:101290000500206270BD70B504460D464148844289
:1012A00000D105E040F21541AFF28C7000F093FAE6
:1012B0000DB1012D00D105E040F21641AFF2A07052
:1012C00000F089FA012D06D194F8240040F00200C4
:1012D00084F8240006E02DB994F8240000F03D00C5
:1012E00084F8240070BD70B504460D462D48844234
:1012F00000D105E040F22D41AFF2DC7000F06BFA56
:101300000DB1012D00D105E040F22E41AFF2F07099
:1013100000F061FA012D06D194F8240040F001009C
:1013200084F8240005E094F8240000F03E0084F8DE
:10133000240070BD2DE9F04105460C461948854250
:1013400000D105E040F24E41AFF62C0000F043FA28
:101350006CB1012C0BD0022C09D0032C07D0042C2B
:1013600005D0052C03D0062C01D0072C00D105E0B8
:1013700040F24F41AFF6580000F02DFA4FEA4470AA
:101380004FEA906795F8240020F03800064647F0B1
:10139000040040EA060007E00000014000C00040F1
:1013A0000080094000C00940064606F03F0085F86D
:1013B0002400BDE8F0812DE9F04104460D461646B3
:1013C0004FF000000746C048844200D105E040F2DB
:1013D0006E41AFF6B40000F0FEF90DB1012D00D161
:1013E00005E040F26F41AFF6C80000F0F4F90EB12D
:1013F000012E00D105E04FF48E61AFF6DC0000F065
:10140000EAF915B1012D08D103E04FF001000746BC
:1014100004E04FF00200074600E000BF00BF012ECD
:1014200004D1207C40EA0700207407E0207C4FF0C4
:10143000F30121EA070100EA01002074BDE8F08110
:101440002DE9F04104460D4617469F48844200D1DD
:1014500005E040F29641AFF6381000F0BCF91DB13E
:10146000012D01D0022D00D105E040F29741AFF6E9
:10147000501000F0B0F90FB1012F00D105E04FF48A
:101480009361AFF6641000F0A6F925B1012D05D0E7
:10149000022D09D105E04FF0100606E04FF040069E
:1014A00003E04FF0800600E000BF00BF012F04D131
:1014B000207C40EA0600207407E0207C4FF0F30116
:1014C00021EA060100EA01002074BDE8F08110B5B0
:1014D00004467D48844200D105E040F2C141AFF6A8
:1014E000C01000F078F9207E10BD70B506460C469D
:1014F0007548864200D105E040F2D541AFF6E010D4
:1015000000F069F9A07810B1A078012800D105E0B9
:1015100040F2D641AFF6F81000F05DF9E07810B176
:10152000E078012800D105E040F2D741AFF6102065
:1015300000F051F9E079FF2800DA05E04FF49B61F3
:10154000AFF6242000F047F9607910B160790128E6
:1015500000D105E040F2D941AFF63C2000F03BF964
:10156000207910B12079012800D105E040F2DA415C
:10157000AFF6542000F02FF9A079FF2800DA05E03B
:1015800040F2DB41AFF6682000F025F9207810B179
:101590002078012800D105E040F2DC41AFF6802040
:1015A00000F019F9607810B16078012800D105E0E9
:1015B00040F2DD41AFF6982000F00DF94FF0000544
:1015C000E078012811D145F0100005466079012826
:1015D00002D145F0200005462079012802D145F0CE
:1015E00008000546E07986F854002078012802D1E9
:1015F00045F001000546A078012805D145F004001A
:101600000546A07986F85000607810B945F00200D0
:10161000054605F03F0086F84C00307B40F038006E
:10162000307370BD012906D190F84C2022F00202DF
:1016300080F84C2005E090F84C2042F0020280F83F
:101640004C2070472DE9F0470446894692461F46D4
:10165000AFB1257BA84628F01000804684F80C80A6
:101660004FF00103524649462046FFF751FB06461C
:1016700000BF207D10F0400FFBD025730BE001234D
:10168000524649462046FFF743FB064600BF207DF1
:1016900010F0400FFBD03046BDE8F08713B504468C
:1016A0004FF001031A4601A92046FFF7CBFF1CBDEE
:1016B00070B504460D4616464FF0000332462946E3
:1016C0002046FFF7BFFF70BD0000014010B50123A9
:1016D0001C2242494248FFF71BFB01234E2241498D
:1016E0003F48FFF715FB10BD88B04FF001008DF8A3
:1016F0000E004FF000008DF810008DF80F004FF035
:1017000002008DF80D004FF000008DF80C0003A8CA
:10171000FEF7D7FF4FF003008DF80D0003A8FEF78A
:10172000D0FF06A8FFF7B0FA06A92D48FFF709F980
:1017300005A8FFF71BFD05A92948FFF78FFC01212C
:101740002748FFF725FAFFF7C1FF4FF000000646D4
:1017500032E04FF00000054606E000230A22694609
:101760001F48FFF738FB0546002DF6D04FF000006C
:1017700004461FE01DF804001B2809D1012316228E
:1017800019491748FFF7C4FA4FF0010006460EE06A
:101790001DF80400722802D1FFF798FF07E00DEB57
:1017A0000400014601231A460D48FFF7B1FA04F17F
:1017B00001000446AC42DDD3002ECAD000BF084869
:1017C000FFF743FC0128FAD00548FFF725FA00BFD0
:1017D000FEE7FFF789FF00BFFEE7000004C0072017
:1017E00000C0004020C007206EC00720202A04DB74
:1017F000203A00FA02F1002070479140C2F1200324
:1018000020FA03F3194390407047202A04DB203A62
:1018100021FA02F00021704721FA02F3D040C2F110
:10182000200291400843194670470000064C074DBE
:1018300006E0E06840F0010394E8070098471034A0
:10184000AC42F6D3FEF746FC60180000801800009A
:10185000002001E001C1121F002AFBD170470000E7
:101860008018000000C0072084000000E40200008F
:101870008018000000000010000200005018000056
:1018800000E1F50548656C6C6F204E58502053659B
:101890006D69636F6E647563746F7273200A0D00F7
:1018A0005541525420706F6C6C696E67206D6F6487
:1018B000652064656D6F200A0D09204D4355204C4D
:1018C000504331377878202D2041524D20436F729C
:1018D0007465782D4D33200A0D092055415254303E
:1018E000202D2039363030627073200A0D005541AA
:1018F00052542064656D6F207465726D696E6174F9
:0419000065642100F9
:04000005000000CD2A
:00000001FF
