:020000040000FA
:1000000008020010E1000000E9000000EB00000021
:10001000ED000000EF000000F10000000000000013
:10002000000000000000000000000000F3000000DD
:10003000F500000000000000F7000000F9000000DB
:10004000FB000000FB000000FB000000FB000000C4
:10005000FB000000FB000000FB000000FB000000B4
:10006000FB000000FB000000FB000000FB000000A4
:10007000FB000000FB000000FB000000FB00000094
:10008000FB000000FB000000FB000000FB00000084
:10009000FB000000FB000000FB000000FB00000074
:1000A000FB000000FB000000FB000000FB00000064
:1000B000FB000000FB000000FB000000FB00000054
:1000C000FB000000FB000000FB000000DFF80CD08C
:1000D00000F0FEF800480047ED1F00000802001085
:1000E0000648804706480047FEE7FEE7FEE7FEE7D2
:1000F000FEE7FEE7FEE7FEE7FEE7FEE73D04000061
:10010000CD00000070B504460D460DB1012D00D1A3
:1001100003E05E2130A001F06BFF206820F4803006
:100120002060012D03D1206840F48030206070BD34
:1001300010B504463348844200D103E03E2126A096
:1001400001F056FF00212F48FFF7DCFF10BD70B50E
:1001500004460D462B48844200D103E04E211EA0E8
:1001600001F046FF206800F480300646C5F3090020
:1001700046EA80100646266070BD70B504460D46FE
:100180002048844200D103E0712113A001F030FF28
:10019000606820F00F006060287818B1606840F057
:1001A00002006060687818B1606840F00400606028
:1001B000A87818B1606840F00800606070BD70B544
:1001C00004460D460F48844200D103E0832102A07B
:1001D00001F00EFF258170BD2E2E5C2E2E5C2E2E82
:1001E0005C2E2E5C447269766572735C736F7572F7
:1001F00063655C6C7063313778785F6461632E632C
:100200000000000000C008402DE9F05F0546002016
:1002100092469B4688460646814640241CE0284676
:1002200041464746224600F030F852465B46801A67
:10023000994111D310461946224600F017F82D1A9D
:1002400067EB0107B8464F4622460120002100F027
:100250000DF838184E418146201EA4F10104DEDC61
:10026000484631462A464346BDE8F09F202A04DB33
:10027000203A00FA02F1002070479140C2F12003B9
:1002800020FA03F3194390407047202A04DB203AF8
:1002900021FA02F00021704721FA02F3D040C2F1A6
:1002A0002002914008431946704740EA01039B072A
:1002B00003D009E008C9121F08C0042AFAD203E0DB
:1002C00011F8013B00F8013B521EF9D270470000C3
:1002D000064C074D06E0E06840F0010394E8070093
:1002E00098471034AC42F6D3FFF7F4FE9C2200008E
:1002F000CC2200007047000000000000FFFFFFFF5D
:1003000098480068C0F30160032865D1954884309F
:10031000006810F0030006D0012823D002283FD047
:10032000032858D100E000BF8E480068C0F30E00DB
:1003300000F101004FEA40008B4900FB01F08B49BE
:10034000D1F88810C1F3074101F10101B0FBF1F1CF
:1003500087480068C0B200F10100B1FBF0F08549A8
:10036000086038E07F480068C0F30E0000F101002B
:100370004FEA4000804900FB01F07C49D1F8881029
:10038000C1F3074101F10101B0FBF1F178480068C8
:10039000C0B200F10100B1FBF0F0764908601AE04C
:1003A00070480068C0F30E0000F101004FEA004100
:1003B0006E48D0F88800C0F3074000F10100B1FB9F
:1003C000F0F16B480068C0B200F10100B1FBF0F041
:1003D0006849086000BF30E065480830006810F0E8
:1003E000030006D0012810D0022819D0032823D1F9
:1003F00000E000BF5E480068C0B200F101005A4949
:10040000B1FBF0F05B49086016E059480068C0B2E3
:1004100000F101005849B1FBF0F0564908600BE0CB
:1004200053480068C0B200F101004FF40041B1FB35
:10043000F0F05049086000BF00BF70474FF0200047
:100440004E4908604948D0F8A00110F0200F05D0AF
:1004500000BF4A48006810F0400FFAD04FF0030088
:10046000434908604FF000004049C1F8A8014449E1
:1004700008604FF001004349086043484349086061
:100480004FF0AA00424908604FF0550008604FF055
:100490000100404908604FF0AA003D4908604FF054
:1004A00055003249C1F88C0000BF2E48006810F09A
:1004B000806FFAD04FF00300364908604FF0AA0071
:1004C0002A49C1F88C004FF055003149086000BF3F
:1004D0002448006810F0407FFAD04FF023002E49E6
:1004E00008604FF0AA002149C1F8AC004FF0550058
:1004F0002A4908604FF00100294908604FF0AA001E
:10050000264908604FF055001849C1F8AC0000BFFB
:100510002148001D006810F4806FF9D04FF00300EF
:100520001F4908604FF0AA001049C1F8AC004FF015
:1005300055001A49086000BF1748001D006810F4F4
:10054000407FF9D01748184908604FF0000007496C
:10055000C1F8C80143F23A0008604FF000001349A7
:100560000860704788C00F4000093D0000C00F4080
:1005700004C10F4000000010001BB700A0C10F40D5
:10058000ACC10F400CC10F406300050084C00F4098
:100590008CC00F4080C00F40A4C00F40ACC00F40C3
:1005A000A0C00F40DE872804C4C00F4008ED00E063
:1005B0002DE9F34F93B080464FF000000990F848C2
:1005C000804504D1062001F03FF8814616E0F54849
:1005D000804504D1082001F037F881460EE0F2484A
:1005E000804504D1302001F02FF8814606E0EF4825
:1005F000804503D1322001F027F881464FEA1910D7
:1006000081464FF0FF3004904FF0000007900690B5
:10061000044625464FF0010A5BE04FF000000890C9
:100620004DE00898504414994843029000201C2241
:10063000CDE90C0948460C99FFF718FE0022A0FBF3
:100640000A3C01FB0AC100FB0210CDE90030002387
:100650009DE80700FFF7D8FD06460F4605964FF0C8
:10066000200230463946CDE90A76FFF70EFE834672
:100670000598B0F1004F06D90598C0F1000005902B
:100680000BF101008346BBF1000F02D0BBF5803FA8
:1006900000D910E0DDE9041088420BD205980490DF
:1006A0004FF000055C4608980790CDF818A0049814
:1006B00000B907E000BF089800F101000890089811
:1006C0005045AED300BF049800B905E00AF101001F
:1006D0008246BAF10F0FA0D900BF002184EA0100C1
:1006E0006940084302D115B0BDE8F08F4FEA1910F8
:1006F000069900FB01FC0846079908440021A0FB6D
:10070000042301FB043100FB05100346CDE9002062
:1007100060460021FFF778FD039014990398814209
:1007200005D903991498A0EB0100049004E01499F2
:100730000398A0EB010004904FF06401049800FBC3
:1007400001F01499B0FBF1F00490049803284ED204
:100750009448804524D198F80C0040F0800088F837
:100760000C004FF0080220462946CDE90E54FFF751
:100770008CFD88F8040088F8004098F80C0000F020
:100780007F0088F80C004FF0F001069801EA001095
:10079000079901F00F0140EA0100C8F8280023E0A2
:1007A00098F80C0040F0800088F80C004FF0080228
:1007B00020462946CDE91054FFF767FD88F804006C
:1007C00088F8004098F80C0000F07F0088F80C00D2
:1007D0004FF0F001069801EA0010079901F00F01AF
:1007E00040EA010088F828004FF0010009900998BC
:1007F00079E770B504460D466948844208D06948D7
:10080000844205D06848844202D06848844200D1BE
:1008100003E0CA2166A001F0EBFB687940B168797A
:10082000012805D06879022802D06879032800D110
:1008300003E0CB215EA001F0DBFBA87910B1A87921
:10084000012800D103E0CC2159A001F0D1FB287987
:1008500058B12879012808D02879022805D02879AC
:10086000032802D02879042800D103E0CD2150A02C
:1008700001F0BEFB4A48844203D10121082000F068
:100880000AFF4848844227D14FF0070020724FF0FA
:100890000000207200E02678207D10F0010FFAD1D0
:1008A0004FF0800084F8300000BF207D10F0200F52
:1008B000FBD04FF0000084F83000606020732062AD
:1008C000207484F84C0084F8540084F85000207E92
:1008D0000646207D06461DE04FF0070020724FF0CF
:1008E0000000207200E02678207D10F0010FFAD180
:1008F0004FF0800084F8300000BF207D10F0200F02
:10090000FBD04FF0000084F830006060207320625C
:10091000207D06462548844203D14FF0000084F82C
:100920002400286801462046FFF742FE1D48844205
:1009300004D1207B00F0C000064603E0207B00F0DD
:10094000C0000646687930B1012806D0022808D0D8
:1009500003280AD10AE000BF0CE046F00100064679
:1009600008E046F00200064604E000BF46F003003F
:10097000064600BF00BF287980B346F0080006464F
:100980002879012806D0022806D0032827D0042879
:100990002DD128E000BF2BE046F01000064627E0EE
:1009A00000C00040000001400080094000C0094034
:1009B0002E2E5C2E2E5C2E2E5C2E2E5C44726976C2
:1009C0006572735C736F757263655C6C70633137ED
:1009D00078785F756172742E6300000009E046F05C
:1009E0002000064604E046F03000064600E000BF66
:1009F00000BFA87930B1012803D146F004000646B3
:100A000001E000BF00BF00BFF948844201D1267356
:100A100000E0267370BD70B504460D46F54884426B
:100A200008D0F348844205D0F348844202D0F3480A
:100A3000844200D105E040F2EB31AFF28C0001F0CE
:100A4000D7FA0DB1012D00D105E04FF47B71AFF263
:100A5000A00001F0CDFA012D10D1E548844206D165
:100A600094F8300040F0800084F8300016E094F8EC
:100A7000300040F0800084F830000FE0DC48844211
:100A800006D194F830004FF0000084F8300005E003
:100A900094F830004FF0000084F8300070BD10B5BD
:100AA0000446D448844208D0D148844205D0D24874
:100AB000844202D0D148844200D105E04FF4CB718A
:100AC000AFF2141001F094FA00212046FFF7A3FFC3
:100AD000C848844203D10021082000F0DCFD10BD8D
:100AE0004FF4165101604FF0030141714FF00001C6
:100AF00001718171704770B504460D46BD4884424E
:100B000008D0BB48844205D0BB48844202D0BB48D1
:100B1000844200D105E04FF4ED71AFF26C1001F0AA
:100B200067FAB348844201D1257000E0257070BD9A
:100B300010B50446AF48844208D0AD48844205D081
:100B4000AD48844202D0AD48844200D105E040F275
:100B5000F311AFF2A41001F04BFAA548844201D181
:100B6000207810BD2078FCE72DE9FF5F80468A469B
:100B7000934657465C460398012831D14FF0000553
:100B80002BE04FF0FF30814606E0B9F1000F00D1B5
:100B900007E0A9F10100814698F8140010F0200F39
:100BA000F3D000BFB9F1000F00D118E04FF01000F2
:100BB00006460FE03A78781C074611464046FFF794
:100BC0009AFFA6F101000646A4F10100044605F1D2
:100BD000010005460EB1002CECD1002CD1D122E051
:100BE0004FF000051CE098F8140010F0200F00D121
:100BF00018E04FF0100006460FE03A78781C0746E0
:100C000011464046FFF777FFA4F101000446A6F124
:100C10000100064605F1010005460EB1002CECD19D
:100C2000002CE0D100BF284604B0BDE8F09F2DE9BC
:100C3000F05F0746894692469B464E465546BBF1B5
:100C4000010F26D14FF0000420E04FF0FF30804626
:100C500006E0B8F1000F00D106E0A8F101008046DF
:100C6000387D10F0010FF4D000BFB8F1000F00D1B3
:100C70000EE03846FFF75CFF307006F101000646D3
:100C8000A5F10100054604F101000446002DDCD168
:100C900017E04FF0000411E0387D10F0010F00D193
:100CA0000EE03846FFF744FF307006F101000646BB
:100CB00004F101000446A5F101000546002DEBD129
:100CC00000BF2046BDE8F09F10B504464948844265
:100CD00008D04748844205D04748844202D047485C
:100CE000844200D105E040F28521AFF23C3001F0B2
:100CF0007FF93F48844204D1207B40F040002073BC
:100D000003E0207B40F04000207310BD2DE9F0414E
:100D100004460D4617463748844208D0344884427A
:100D200005D03548844202D03448844200D105E0E1
:100D30004FF42B71AFF2883001F05AF90FB1012F47
:100D400000D105E040F2AD21AFF29C3001F050F946
:100D5000072D1AD2DFE805F004070A0D101316005C
:100D60004FF0010611E04FF002060EE04FF00406CE
:100D70000BE04FF0080608E04FF0800605E04FF466
:100D8000807602E04FF4007600BF00BF184884422E
:100D900014D15DB1012D09D0022D07D0052D05D04C
:100DA000062D03D0032D01D0042D00D116E040F212
:100DB000C921AFF2044001F01BF90FE03DB1012D54
:100DC00005D0022D03D0052D01D0062D00D105E060
:100DD00040F2CD21AFF2284001F00AF9012F14D1E1
:100DE000034884420CD1606840EA0600606020E05D
:100DF0000000014000C000400080094000C00940E0
:100E0000606840EA0600606013E0B948844208D197
:100E1000606840F28F3121EA060100EA010060605B
:100E200007E0606840F2073121EA060100EA0100AC
:100E30006060BDE8F08110B50446AE48844208D039
:100E4000AB48844205D0AC48844202D0AB488442CF
:100E500000D105E040F2FB21AFF2AC4001F0C8F850
:100E6000A348844201D1007D10BD207DFCE710B570
:100E70000446A048844208D09D48844205D09E483C
:100E8000844202D09D48844200D105E040F21231F4
:100E9000AFF2E44001F0ACF8A06840F2CF31084076
:100EA00010BD0146087D10F0400F01D000207047B2
:100EB0000120FCE770B506460C464FF000000546E1
:100EC0008C48864208D08A48864205D08A488642A5
:100ED00002D08A48864200D105E04FF44E71AFF24D
:100EE000305001F085F8E07840B1E078012805D075
:100EF000E078022802D0E078032800D105E040F233
:100F00003931AFF2545001F073F8A07810B1A078E5
:100F1000012800D105E040F23A31AFF26C5001F007
:100F200067F8207810B12078012800D105E040F260
:100F30003B31AFF2845001F05BF8607810B160781B
:100F4000012800D105E04FF44F71AFF29C5001F041
:100F50004FF845F001000546E07830B1012806D091
:100F6000022808D003280AD10AE000BF0CE045F0AF
:100F70004000054608E045F08000054604E000BF5B
:100F800045F0C000054600BF00BF6078012802D1CF
:100F900045F0040005462078012802D145F0020002
:100FA0000546A078012802D145F0080005465048C2
:100FB000864203D105F0CF00307202E005F0CF0089
:100FC000307270BD4FF000018170C1704FF00101AF
:100FD0000170417070472DE9F04104460F461546F7
:100FE0004448844208D04248844205D04248844262
:100FF00002D04248844200D105E040F29331AFF282
:10100000506000F0F5FF0DB1012D00D105E04FF467
:101010006571AFF2646000F0EBFF4FF00006012D48
:101020000BD13878012802D146F0020006467878C4
:10103000012802D146F0040006462D48844218D10A
:10104000012D12D1207B40F0800020734FF0000072
:1010500020702071207B20F0800020734FF0100062
:10106000A06246F0010020621CE04FF00000206208
:1010700018E0012D13D1207B40F0800020734FF049
:10108000000020702071207B20F0800020734FF042
:10109000100084F8280046F00100206202E04FF0C2
:1010A00000002062BDE8F08170B504460D4611488D
:1010B000844208D00E48844205D00F48844202D0B2
:1010C0000E48844200D105E04FF47571AFF22070F4
:1010D00000F08EFF0648844204D1206A40EA0500F1
:1010E000206203E0206A40EA0500206270BD000033
:1010F0000000014000C000400080094000C00940DD
:1011000013B504464FF001031A4601A92046FFF724
:101110002BFD1CBD38B504464FF0000000904FF089
:1011200001031A4669462046FFF781FD9DF800003D
:1011300038BD70B506460D462C4606E02278601C88
:10114000044611463046FFF7DBFF20780028F5D132
:1011500070BD70B504460D4629462046FFF7E9FFED
:10116000FFA12046FFF7E5FF70BD2DE9F0410546E0
:101170000C464FF00A0094FBF0F100FB1140C0B2A6
:1011800006464FF00A0094FBF0F04FF00A0190FB86
:10119000F1F201FB1200C0B207464FF0640094FB6D
:1011A000F0F090FBF1F201FB1200C0B2804608F1B2
:1011B0003000C0B201462846FFF7A2FF07F1300019
:1011C000C0B201462846FFF79BFF06F13000C0B2CF
:1011D00001462846FFF794FFBDE8F0812DE9F0476E
:1011E00005460C464FF00A0094FBF0F100FB11405D
:1011F000C0B206464FF00A0094FBF0F04FF00A012F
:1012000090FBF1F201FB1200C0B207464FF0640000
:1012100094FBF0F090FBF1F201FB1200C0B28046AB
:101220004FF47A7094FBF0F090FBF1F201FB1200A6
:10123000C0B2814642F2107094FBF0F090FBF1F2E4
:1012400001FB1200C0B282460AF13000C0B2014672
:101250002846FFF755FF09F13000C0B20146284685
:10126000FFF74EFF08F13000C0B201462846FFF7F5
:1012700047FF07F13000C0B201462846FFF740FFA4
:1012800006F13000C0B201462846FFF739FFBDE83D
:10129000F0872DE9F34F83B00C464FF00A00B4FB02
:1012A000F0F100FB1140C0B205464FF00A00B4FB5C
:1012B000F0F04FF00A01B0FBF1F201FB1200C0B2F6
:1012C00006464FF06400B4FBF0F0B0FBF1F201FB16
:1012D0001200C0B207464FF47A70B4FBF0F0B0FBD6
:1012E000F1F201FB1200C0B2804642F21070B4FB72
:1012F000F0F0B0FBF1F201FB1200C0B28146994858
:10130000B4FBF0F0B0FBF1F201FB1200C0B2824678
:101310009548B4FBF0F0B0FBF1F201FB1200C0B253
:1013200083469248B4FBF0F0B0FBF1F201FB1200EF
:10133000C0B202908E48B4FBF0F0B0FBF1F201FBBA
:101340001200C0B201908B48B4FBF0F0B0FBF1F298
:1013500001FB1200C0B20090009800F13000C0B252
:1013600001460398FFF7CCFE01983030C0B2014629
:101370000398FFF7C5FE02983030C0B201460398CB
:10138000FFF7BEFE0BF13000C0B201460398FFF735
:10139000B7FE0AF13000C0B201460398FFF7B0FE75
:1013A00009F13000C0B201460398FFF7A9FE08F129
:1013B0003000C0B201460398FFF7A2FE07F13000EB
:1013C000C0B201460398FFF79BFE06F13000C0B2A1
:1013D00001460398FFF794FE05F13000C0B20146C4
:1013E0000398FFF78DFE05B0BDE8F08F2DE9F041C1
:1013F00007460D4660A13846FFF79BFE4FF00100FF
:10140000064600BF4FEA860045FA00F000F00F04E0
:10141000092C02DD04F1370001E004F13000C1B213
:101420003846FFF76DFE3000A6F10101C9B20E4645
:10143000E8D1BDE8F0812DE9F04107460D464EA107
:101440003846FFF776FE4FF00300064600BF4FEA2E
:10145000860045FA00F000F00F04092C02DD04F1CB
:10146000370001E004F13000C1B23846FFF748FE12
:101470003000A6F10101C9B20E46E8D1BDE8F08105
:101480002DE9F04107460D463BA13846FFF751FED6
:101490004FF00700064600BF4FEA860025FA00F02D
:1014A00000F00F04092C02DD04F1370001E004F123
:1014B0003000C1B23846FFF723FE3000A6F101012B
:1014C000C9B20E46E8D1BDE8F0811FB54FF001006A
:1014D0008DF802004FF000008DF804008DF8030035
:1014E0004FF002008DF801004FF000008DF8000071
:1014F000684600F0D2FB4FF003008DF8010068460B
:1015000000F0CBFB02A8FFF7EBFA4FF4E1300290BA
:1015100002A91A48FFF76DF901211848FFF77BFA75
:10152000AFF2F13016490860AFF2D93015490860C2
:10153000AFF2334014490860AFF24F10134908600E
:10154000AFF20D1012490860AFF2CB0011490860EC
:10155000AFF2E93010490860AFF27F300F491FE069
:101560000A0D0000A086010040420F0080969800FE
:1015700000E1F50500CA9A3B3078000000C0004049
:1015800000C0072004C0072008C0072018C007209B
:101590001CC0072020C007200CC0072010C0072057
:1015A0000860AFF2113003490860AFF2974002497A
:1015B00008601FBD14C0072024C0072010B50A46CC
:1015C000202801D2034601E0A0F12003194620287B
:1015D00014D2514B1B684FF0030404FA01F423EAC0
:1015E00004034E4CC4F8A8314B4B1B6802FA01F4BB
:1015F00043EA0403494CC4F8A83113E0484B1B6884
:101600004FF0030404FA01F423EA0403434CC4F842
:10161000AC31434B1B6802FA01F443EA04033F4C2C
:10162000C4F8AC3110BD0146202903D20A463A4B1A
:10163000186803E0A1F12002394B186820FA02F380
:1016400003F003031846704770B506463548006836
:1016500004463046FFF7E7FF054635B1012D08D0B7
:10166000022D0AD0032D10D10BE04FF004000546E7
:101670000BE04FF00100054607E04FF00200054681
:1016800003E04FF00800054600BF00BFB4FBF5F0D3
:101690000446204670BD01290AD1234A1268234B13
:1016A00000EA030342EA03021C4BC3F8C4200AE029
:1016B00049B91D4A12681D4B23EA000302EA0302DE
:1016C000164BC3F8C42070474FF00000184908605B
:1016D00030BF70474FF00400164908604FF0080013
:1016E0000E49C1F8C00030BF70474FF004001149E7
:1016F00008604FF009000949C1F8C00030BF7047C9
:101700004FF004000B4908604FF003000349C1F893
:10171000C00030BF70470000A8C10F4000C00F409C
:10172000ACC10F4000000010C4C00F40DEF7EFEF67
:10173000C0C00F4010ED00E010B501214807FFF7D1
:10174000AAFF4FF00000F8490860F849C1F83001DD
:10175000F7490860F7490860F7490860F7490860E9
:10176000F7490860F74908604FF0FF00EF498860CB
:10177000086110BD70B50146EC48C0694FF0010525
:101780000E6805FA06F5EDB2284201D0002070BDC2
:10179000ED4D086855F820204FF001000D6800FA63
:1017A00005F0C0B2E14DA8604FF001000D6800FAED
:1017B00005F0C0B2DD4D28614FF00000D06010612F
:1017C000086A9060486930B101281BD0022840D0D7
:1017D00003287ED164E0C8681060086950604868DA
:1017E000C0F30B0040F410308D6805F0070540EAA7
:1017F00085408D6805F0070540EA455040F00C40F3
:10180000D0607AE0C8681060D04DC86955F82000F3
:101810005060CF4DC869285C00F00705486865F343
:101820001F30CB4ECD69755D05F0070540EAC53028
:10183000C84ECD69755D05F0070540EA8540CD6964
:10184000755D05F0070540EA455040F00440D06062
:1018500053E0BE4D886955F820001060086950605B
:10186000BB4D8869285C00F00705486865F31F30A8
:10187000B74E8D69755D05F0070540EAC530B54E78
:101880008D69755D05F0070540EA85408D69755DD8
:1018900005F0070540EA455040F00840D0602CE0D4
:1018A000AA4D886955F820001060C86955F82000D5
:1018B0005060A74D8869285C00F00705486865F30B
:1018C0001F30A34ECD69755D05F0070540EAC530B0
:1018D00000E010E09F4E8D69755D05F0070540EA58
:1018E0008540CD69755D05F0070540EA455040F03B
:1018F0000040D06001E0002049E700BF88690F2860
:101900000FD99548D0F8C4018D69A5F110054FF0A5
:10191000010606FA05F640EA06008F4DC5F8C40137
:101920000EE08D48D0F8C4018D69A5F108054FF08F
:10193000010606FA05F620EA0600874DC5F8C4013F
:10194000C8690F280FD98448D0F8C401CD69A5F122
:1019500010054FF0010606FA05F640EA06007E4D36
:10196000C5F8C4010EE07C48D0F8C401CD69A5F1EA
:1019700008054FF0010606FA05F620EA0600764D46
:10198000C5F8C4014FF00100684D286300BF6748E7
:10199000006B10F0010FFAD08B690F2B02D9A3F165
:1019A000080000E018460346CC690F2C02D9A4F1C8
:1019B000080000E020460446486900F007004FF4A4
:1019C000404545EAC02003F01F0540EA450004F009
:1019D0001F0540EA851010614FF00100D7E602466E
:1019E000594B53F822301846012904D1036943F0BA
:1019F0000103036103E0036923F0010303617047FE
:101A000070B505460C464DB1012D07D0022D05D00D
:101A1000032D03D0042D01D0052D00D104E040F2A8
:101A20008B114EA000F0E4FA002C02DB072C00DC46
:101A300004E04FF4C67149A000F0DAFA052D40D257
:101A4000DFE805F0030F1B27330038480068012149
:101A500001FA04F1C9B2084201D0012070BD002092
:101A6000FCE732484068012101FA04F1C9B208429A
:101A700001D00120F2E70020F0E72C48C1680120E6
:101A800000FA04F0C0B2014201D00120E6E70020D4
:101A9000E4E726488069012101FA04F1C9B208424D
:101AA00001D00120DAE70020D8E720484169012071
:101AB00000FA04F0C0B2014201D00120CEE70020BC
:101AC000CCE71A48C069012101FA04F1C9B2084201
:101AD00001D00120C2E70020C0E770B505460C46E2
:101AE0000DB1012D00D104E040F2B5111BA000F0B2
:101AF0007FFA002C02DB072C00DC04E04FF4DB71E2
:101B000016A000F075FA3DB94FF0010000FA04F09C
:101B1000C0B20649886006E04FF0010000FA04F008
:101B2000C0B20249086170BD104100500040005031
:101B3000504100507041005090410050B041005061
:101B4000D0410050F041005028C00720CC210000B7
:101B50002C2200004422000000C000402E2E5C2EEB
:101B60002E5C2E2E5C2E2E5C447269766572735C40
:101B7000736F757263655C6C7063313778785F671B
:101B800070646D612E630000F0B504460B46154687
:101B900019464FEA440630464D4E3246102905D3C9
:101BA000A1F11006314600F10106304652F82060DE
:101BB0004FEA410C4FF0030707FA0CF726EA070635
:101BC00042F8206052F820604FEA410705FA07F713
:101BD00046EA070642F82060F0BDF0B504460B4621
:101BE000154619464FEA440630463A4E3246102909
:101BF00005D3A1F11006314600F10106304652F836
:101C000020604FEA410C4FF0030707FA0CF726EA71
:101C1000070642F8206052F820604FEA410705FAB3
:101C200007F746EA070642F82060F0BD30B50B46DC
:101C3000294C2146012A09D151F82040154605FAC0
:101C400003F544EA050441F8204009E051F820403A
:101C50004FF0010505FA03F524EA050441F8204098
:101C600030BD012806D11A49896A41F00801184A95
:101C7000916206E028B91649896A21F00801144AE0
:101C800091627047012801D14FF0050211B94FF060
:101C90000A031A460E4BDA67704710B50446A3785C
:101CA0001A466378194623781846FFF76DFFE378E4
:101CB0001A466378194623781846FFF78EFF237972
:101CC0001A466378194623781846FFF7AFFF10BD10
:101CD00000C0024040C0024068C0024010B5C54983
:101CE000C548C64A1268904710BDE0B04FF04002A8
:101CF000C34940A8FEF7D9FA4FF002008DF87A01E7
:101D00004FF000008DF87C018DF87B014FF01A0038
:101D10008DF879014FF000008DF878015EA8FFF78B
:101D2000BCFFFFF7D2FBFFF7D9FF5EE1B5A1B248D8
:101D3000B24A12689047BBA1AF48B04A12689047B8
:101D4000BDA1AD48AD4A12689047C1A1AA48AB4AAF
:101D5000126890474FF00000054620E0A648C249AF
:101D600009688847312804D0322806D033280CD19E
:101D700007E04FF00100054610E04FF00200054675
:101D80000CE04FF00300054608E0B8A19A489B4AD2
:101D9000126890474FF00000054600BF00BF002DBD
:101DA000DCD0012D04D0022D5BD0032D7ED17EE04E
:101DB0004FF00000044651E00F2C12DC40A850F810
:101DC00024004FEA402042F21071B0FBF1F000F520
:101DD00000704DF8240037D140F2FF304DF8240058
:101DE00032E01E2C0FDCC4F11E0040A951F8200087
:101DF0004FEA402042F21071B0FBF1F000F50070A4
:101E00004DF8240020E02D2C0FDCA4F11E0040A989
:101E100051F820004FEA402042F21071B0FBF1F07F
:101E2000C0F500704DF824000EE0C4F13C0040A95C
:101E300051F820004FEA402042F21071B0FBF1F05F
:101E4000C0F500704DF824005DF824004FEA8010C2
:101E50004DF8240004F10100C0B204463C2CABDB79
:101E600043E04FF0000004461DE0202C04DA4FEA66
:101E700044104DF824000CE0202C04D140F2FF3037
:101E80004DF8240005E0C4F140004FEA40104DF841
:101E900024005DF824004FEA80104DF8240004F17E
:101EA0000100C0B20446402CDFDB1EE01CE04FF016
:101EB0000000044615E04FEAE47104EB11714FEAAB
:101EC000211140F2551201FB02F14DF824105DF88A
:101ED00024004FEA80104DF8240004F10100C0B244
:101EE0000446402CE7DB00E000BF00BFCDF840D146
:101EF0006A48519050A85290012D02D14FF03C00F9
:101F000001E04FF0400040F089605390FFF714FC6F
:101F10004FF000005490CDF85CD15890012D02D1C3
:101F20004FF03C0001E04FF0400055904FF00000B2
:101F300056904FF0010059904FF000005A904FF02A
:101F400007005B9050A85C9054A8FFF713FC4FF07B
:101F500001008DF875018DF876015048FEF7E8F81C
:101F6000012D02D14FF03C0001E04FF04000C0EBEA
:101F700000104FEA80004A4991FBF0F6314647488D
:101F8000FEF71DF95DA94548FEF7F7F8012D04D0CD
:101F9000022D08D0032D12D10BE042A11648174A9A
:101FA000126890470CE049A11348144A1268904700
:101FB00006E051A11048114A1268904700E000BFA6
:101FC00000BF01210020FFF70AFD56A10A485F4A21
:101FD0001268904700BF08482349096888471B28B2
:101FE000F9D100210846FFF7FAFC9FE6FFF77DFED6
:101FF00000BFFEE748C0072000C0004000C0072027
:102000005C220000506C656173652063686F6F73BC
:1020100065207369676E616C20747970653A0A0D8A
:10202000000000000931292053696E652077617630
:10203000652E0A0D000000000932292054726961E2
:102040006E676C6520776176652E0A0D00000000D2
:1020500009332920457363616C61746F7220776165
:1020600076652E0A0D00000024C0072057726F6E9F
:10207000672063686F6963652120506C65617365D3
:102080002073656C6563742031206F722032206F7D
:10209000722033206F6E6C79210A0D0000C0084059
:1020A00040787D010A0D4441432069732067656EC5
:1020B00065726174696E67203630487A2073696E84
:1020C0006520776176652E2E2E0000000A0D4441B2
:1020D000432069732067656E65726174696E67205D
:1020E0003630487A20747269616E676C652077615A
:1020F00076652E2E2E0000000A0D444143206973A0
:102100002067656E65726174696E67203630487A43
:1021100020657363616C61746F7220776176652EE0
:102120002E2E00000A0D50726561737320455343D3
:1021300020696620796F752077616E7420746F2036
:102140007465726D696E61746521000004C00720BA
:1021500070B58C1810F8015B15F0030201D110F86E
:10216000012B2B1106D110F8013B03E010F8016B95
:1021700001F8016B521EF9D1B3B110F8012B05F033
:102180000C058A1A0C2D04D0A2EB851203F1020370
:1021900008E010F8015BA2EB0522F7E712F8015BFB
:1021A00001F8015B5B1EF9D5A142D3D3002070BDBD
:1021B00002E008C8121F08C1002AFAD170470020A7
:1021C00001E001C1121F002AFBD1704708800840BE
:1021D0000880084008000340080003400440034012
:1021E00008800A400C800A4000C0084000C000403F
:1021F00000C0004000000140000001400080094094
:102200000080094000C0094000C00940184000405B
:102210001C400040188000401C800040180009400D
:102220001C000940184009401C40094001010101FF
:102230000104040000000000000000000000000095
:102240000000000000000000020202000000000088
:10225000000000000202020202020202000000006E
:10226000150400001F080000120C0000E30F00001E
:1022700088130000F5160000231A0000071D000057
:102280009A1F0000D4210000AF2300002625000083
:1022900035260000D926000010270000CC220000BF
:1022A0000000001004000000B0210000D022000057
:1022B00000C007200C02000050210000D0220000C6
:1022C0000400001004020000BE21000000E1F5053A
:1022D0000226000110054100502004124004126043
:1022E0000412800412A00412C00412E018024D2A45
:1022F0000110380A0D48656C6C6F204E5850205301
:10230000656D69636F6E647563746F7273200A0D17
:10231000204441432067656E65726174652073696E
:10232000676E616C732064656D6F1D501109202DFF
:10233000204D43553A204C50433137787813200ACA
:10234000436F72653A2041524D0A70077465782DCB
:102350004D331A20076D6D756E69634C100B7669ED
:10236000613A20554152543019300B3131353230F9
:1023700030206B627075300455736579A3746F7C7F
:10238000100C6E652C20747269616E676C0A100700
:10239000657363616C61A71005207761761A10156B
:1023A0006672657175656E63792061646A757374B0
:1023B00061626C654B3253B3100D2073616D706CAC
:1023C00065732061726544200A616E736D6974746F
:1023D00065646221E21009627920444D41206DD884
:1023E000237279771007706572697068F60404507B
:0823F0006C0A0D7102000000EF
:04000005000000CD2A
:00000001FF
